{
  "contractName": "OptionsFactory",
  "abi": [
    {
      "inputs": [
        {
          "internalType": "address",
          "name": "_quantConfig",
          "type": "address"
        },
        {
          "internalType": "address",
          "name": "_collateralToken",
          "type": "address"
        }
      ],
      "stateMutability": "nonpayable",
      "type": "constructor"
    },
    {
      "anonymous": false,
      "inputs": [
        {
          "indexed": false,
          "internalType": "address",
          "name": "qTokenAddress",
          "type": "address"
        },
        {
          "indexed": false,
          "internalType": "address",
          "name": "creator",
          "type": "address"
        },
        {
          "indexed": true,
          "internalType": "address",
          "name": "underlying",
          "type": "address"
        },
        {
          "indexed": true,
          "internalType": "address",
          "name": "strike",
          "type": "address"
        },
        {
          "indexed": false,
          "internalType": "address",
          "name": "oracle",
          "type": "address"
        },
        {
          "indexed": false,
          "internalType": "uint256",
          "name": "strikePrice",
          "type": "uint256"
        },
        {
          "indexed": false,
          "internalType": "uint256",
          "name": "expiry",
          "type": "uint256"
        },
        {
          "indexed": false,
          "internalType": "uint256",
          "name": "collateralTokenId",
          "type": "uint256"
        },
        {
          "indexed": false,
          "internalType": "uint256",
          "name": "allOptionsLength",
          "type": "uint256"
        },
        {
          "indexed": false,
          "internalType": "bool",
          "name": "isCall",
          "type": "bool"
        }
      ],
      "name": "OptionCreated",
      "type": "event"
    },
    {
      "inputs": [],
      "name": "collateralToken",
      "outputs": [
        {
          "internalType": "contract ICollateralToken",
          "name": "",
          "type": "address"
        }
      ],
      "stateMutability": "view",
      "type": "function"
    },
    {
      "inputs": [
        {
          "internalType": "address",
          "name": "_underlyingAsset",
          "type": "address"
        },
        {
          "internalType": "address",
          "name": "_strikeAsset",
          "type": "address"
        },
        {
          "internalType": "address",
          "name": "_oracle",
          "type": "address"
        },
        {
          "internalType": "uint256",
          "name": "_strikePrice",
          "type": "uint256"
        },
        {
          "internalType": "uint256",
          "name": "_expiryTime",
          "type": "uint256"
        },
        {
          "internalType": "bool",
          "name": "_isCall",
          "type": "bool"
        }
      ],
      "name": "createOption",
      "outputs": [],
      "stateMutability": "nonpayable",
      "type": "function"
    },
    {
      "inputs": [
        {
          "internalType": "address",
          "name": "_underlyingAsset",
          "type": "address"
        },
        {
          "internalType": "address",
          "name": "_strikeAsset",
          "type": "address"
        },
        {
          "internalType": "address",
          "name": "_oracle",
          "type": "address"
        },
        {
          "internalType": "address",
          "name": "_qTokenAsCollateral",
          "type": "address"
        },
        {
          "internalType": "uint256",
          "name": "_strikePrice",
          "type": "uint256"
        },
        {
          "internalType": "uint256",
          "name": "_expiryTime",
          "type": "uint256"
        },
        {
          "internalType": "bool",
          "name": "_isCall",
          "type": "bool"
        }
      ],
      "name": "getCollateralToken",
      "outputs": [
        {
          "internalType": "uint256",
          "name": "",
          "type": "uint256"
        }
      ],
      "stateMutability": "view",
      "type": "function"
    },
    {
      "inputs": [],
      "name": "getOptionsLength",
      "outputs": [
        {
          "internalType": "uint256",
          "name": "",
          "type": "uint256"
        }
      ],
      "stateMutability": "view",
      "type": "function"
    },
    {
      "inputs": [
        {
          "internalType": "address",
          "name": "_underlyingAsset",
          "type": "address"
        },
        {
          "internalType": "address",
          "name": "_strikeAsset",
          "type": "address"
        },
        {
          "internalType": "address",
          "name": "_oracle",
          "type": "address"
        },
        {
          "internalType": "uint256",
          "name": "_strikePrice",
          "type": "uint256"
        },
        {
          "internalType": "uint256",
          "name": "_expiryTime",
          "type": "uint256"
        },
        {
          "internalType": "bool",
          "name": "_isCall",
          "type": "bool"
        }
      ],
      "name": "getQToken",
      "outputs": [
        {
          "internalType": "address",
          "name": "",
          "type": "address"
        }
      ],
      "stateMutability": "view",
      "type": "function"
    },
    {
      "inputs": [
        {
          "internalType": "address",
          "name": "_underlyingAsset",
          "type": "address"
        },
        {
          "internalType": "address",
          "name": "_strikeAsset",
          "type": "address"
        },
        {
          "internalType": "address",
          "name": "_oracle",
          "type": "address"
        },
        {
          "internalType": "address",
          "name": "_qTokenAsCollateral",
          "type": "address"
        },
        {
          "internalType": "uint256",
          "name": "_strikePrice",
          "type": "uint256"
        },
        {
          "internalType": "uint256",
          "name": "_expiryTime",
          "type": "uint256"
        },
        {
          "internalType": "bool",
          "name": "_isCall",
          "type": "bool"
        }
      ],
      "name": "getTargetCollateralTokenId",
      "outputs": [
        {
          "internalType": "uint256",
          "name": "",
          "type": "uint256"
        }
      ],
      "stateMutability": "view",
      "type": "function"
    },
    {
      "inputs": [
        {
          "internalType": "address",
          "name": "_underlyingAsset",
          "type": "address"
        },
        {
          "internalType": "address",
          "name": "_strikeAsset",
          "type": "address"
        },
        {
          "internalType": "address",
          "name": "_oracle",
          "type": "address"
        },
        {
          "internalType": "uint256",
          "name": "_strikePrice",
          "type": "uint256"
        },
        {
          "internalType": "uint256",
          "name": "_expiryTime",
          "type": "uint256"
        },
        {
          "internalType": "bool",
          "name": "_isCall",
          "type": "bool"
        }
      ],
      "name": "getTargetQTokenAddress",
      "outputs": [
        {
          "internalType": "address",
          "name": "",
          "type": "address"
        }
      ],
      "stateMutability": "view",
      "type": "function"
    },
    {
      "inputs": [
        {
          "internalType": "address",
          "name": "_qToken",
          "type": "address"
        }
      ],
      "name": "isQToken",
      "outputs": [
        {
          "internalType": "bool",
          "name": "",
          "type": "bool"
        }
      ],
      "stateMutability": "view",
      "type": "function"
    },
    {
      "inputs": [
        {
          "internalType": "address",
          "name": "",
          "type": "address"
        }
      ],
      "name": "qTokenAddressToCollateralTokenId",
      "outputs": [
        {
          "internalType": "uint256",
          "name": "",
          "type": "uint256"
        }
      ],
      "stateMutability": "view",
      "type": "function"
    },
    {
      "inputs": [
        {
          "internalType": "uint256",
          "name": "",
          "type": "uint256"
        }
      ],
      "name": "qTokens",
      "outputs": [
        {
          "internalType": "address",
          "name": "",
          "type": "address"
        }
      ],
      "stateMutability": "view",
      "type": "function"
    },
    {
      "inputs": [],
      "name": "quantConfig",
      "outputs": [
        {
          "internalType": "contract IQuantConfig",
          "name": "",
          "type": "address"
        }
      ],
      "stateMutability": "view",
      "type": "function"
    }
  ],
  "bytecode": "608060405234801561001057600080fd5b5060405162004951380380620049518339810160408190526100319161007e565b600180546001600160a01b039384166001600160a01b031991821617909155600280549290931691161790556100b0565b80516001600160a01b038116811461007957600080fd5b919050565b60008060408385031215610090578182fd5b61009983610062565b91506100a760208401610062565b90509250929050565b61489180620000c06000396000f3fe60806040523480156200001157600080fd5b5060043610620000b85760003560e01c8063380533c2116200007b578063380533c214620001685780635eb57b48146200017f57806393f7f14d1462000189578063ab0a7bc61462000193578063b2016bd414620001aa578063effa949b14620001b457620000b8565b80630c74804e14620000bd5780631488193514620000ec57806316a5de451462000105578063232cbb25146200012b5780632c37e4ca1462000151575b600080fd5b620000d4620000ce36600462000e64565b620001cb565b604051620000e39190620011cc565b60405180910390f35b62000103620000fd36600462000f6e565b620001e8565b005b6200011c6200011636600462000ee0565b6200043d565b604051620000e39190620011d7565b620001426200013c3660046200108d565b62000471565b604051620000e39190620010f2565b6200011c6200016236600462000ee0565b6200049c565b6200011c6200017936600462000e64565b620005f3565b6200011c62000605565b620001426200060b565b62000142620001a436600462000f6e565b6200061a565b6200014262000668565b62000142620001c536600462000f6e565b62000677565b6001600160a01b0316600090815260046020526040902054151590565b60015462000206908790869085906001600160a01b031687620006a2565b6002546001546000916200022e916001600160a01b039182169116898989868a8a8a62000a67565b6000818152600360205260409020549091506001600160a01b031615620002725760405162461bcd60e51b81526004016200026990620012c2565b60405180910390fd5b60006c5155414e542e46494e414e434560981b600160009054906101000a90046001600160a01b0316898989898989604051620002af9062000ddc565b620002c1979695949392919062001167565b8190604051809103906000f5905080158015620002e2573d6000803e3d6000fd5b50600083815260036020908152604080832080546001600160a01b038087166001600160a01b0319928316811790935585546001810187557f290decd9548b62a8d60345a988386fc84ba6bc95484008f6362f93160ef3e563018054909216831790915590845260049092528083208690559154915192935089811692908b16917ffa6070efc7432cb6e50e873d0f58633d5bff5ee191c9cd25347a340963847bbe916200039f91869133918d918d918d918c91908e9062001120565b60405180910390a360025460405163bdaa0a4160e01b81526001600160a01b039091169063bdaa0a4190620003dc90849060009060040162001106565b602060405180830381600087803b158015620003f757600080fd5b505af11580156200040c573d6000803e3d6000fd5b505050506040513d601f19601f82011682018060405250810190620004329190620010a6565b505050505050505050565b60025460015460009162000465916001600160a01b0391821691168a8a8a8a8a8a8a62000a67565b98975050505050505050565b600081815481106200048257600080fd5b6000918252602090912001546001600160a01b0316905081565b600080620004af8989898888886200061a565b600254604051636ed1ff6d60e01b81529192506000916001600160a01b0390911690636ed1ff6d90620004e99085908b9060040162001106565b60206040518083038186803b1580156200050257600080fd5b505afa15801562000517573d6000803e3d6000fd5b505050506040513d601f19601f820116820180604052508101906200053d9190620010a6565b60025460405163d94a7e5360e01b81529192506000916001600160a01b039091169063d94a7e539062000575908590600401620011d7565b604080518083038186803b1580156200058d57600080fd5b505afa158015620005a2573d6000803e3d6000fd5b505050506040513d601f19601f82011682018060405250810190620005c8919062000ea2565b5090506001600160a01b038116620005e2576000620005e4565b815b9b9a5050505050505050505050565b60046020526000908152604090205481565b60005490565b6001546001600160a01b031681565b600254600154600091829162000644916001600160a01b0390811691168a8a8a868b8b8b62000a67565b6000908152600360205260409020546001600160a01b031698975050505050505050565b6002546001600160a01b031681565b60015460009062000697906001600160a01b031688888888888862000b02565b979650505050505050565b428311620006c45760405162461bcd60e51b81526004016200026990620012f2565b6000826001600160a01b031663daae3c7e620007066040518060400160405280600e81526020016d6f7261636c65526567697374727960901b81525062000ba9565b6040518263ffffffff1660e01b8152600401620007249190620011d7565b60206040518083038186803b1580156200073d57600080fd5b505afa15801562000752573d6000803e3d6000fd5b505050506040513d601f19601f8201168201806040525081019062000778919062000e83565b604051635cdaae4d60e11b81529091506001600160a01b0382169063b9b55c9a90620007a9908890600401620010f2565b60206040518083038186803b158015620007c257600080fd5b505afa158015620007d7573d6000803e3d6000fd5b505050506040513d601f19601f82011682018060405250810190620007fd919062000fe6565b6200081c5760405162461bcd60e51b815260040162000269906200136d565b60405163036c057d60e21b81526000906001600160a01b03871690630db015f4906200084d908a90600401620010f2565b60206040518083038186803b1580156200086657600080fd5b505afa1580156200087b573d6000803e3d6000fd5b505050506040513d601f19601f82011682018060405250810190620008a1919062000e83565b6001600160a01b03161415620008cb5760405162461bcd60e51b81526004016200026990620011e0565b604051632b52384b60e11b81526001600160a01b038616906356a4709690620008fd90899088908790600401620011ab565b60206040518083038186803b1580156200091657600080fd5b505afa1580156200092b573d6000803e3d6000fd5b505050506040513d601f19601f8201168201806040525081019062000951919062000fe6565b620009705760405162461bcd60e51b8152600401620002699062001265565b6040516305f29d0f60e01b81526001600160a01b038216906305f29d0f906200099e908890600401620010f2565b60206040518083038186803b158015620009b757600080fd5b505afa158015620009cc573d6000803e3d6000fd5b505050506040513d601f19601f82011682018060405250810190620009f2919062000fe6565b62000a115760405162461bcd60e51b81526004016200026990620013ca565b6000821162000a345760405162461bcd60e51b8152600401620002699062001342565b62000a40868462000c22565b62000a5f5760405162461bcd60e51b815260040162000269906200122e565b505050505050565b60008062000a7b8a8a8a8a89898962000b02565b604051636ed1ff6d60e01b81529091506001600160a01b038c1690636ed1ff6d9062000aae9084908a9060040162001106565b60206040518083038186803b15801562000ac757600080fd5b505afa15801562000adc573d6000803e3d6000fd5b505050506040513d601f19601f82011682018060405250810190620005e49190620010a6565b6000806040518060200162000b179062000ddc565b601f1982820381018352601f90910116604081905262000b48908b908b908b908b908b908b908b9060200162001167565b60408051601f198184030181529082905262000b689291602001620010bf565b60405160208183030381529060405280519060200120905062000b9c6c5155414e542e46494e414e434560981b8262000d6b565b9998505050505050505050565b6000816040516020018082805190602001908083835b6020831062000be05780518252601f19909201916020918201910162000bbf565b6001836020036101000a038019825116818451168082178552505050505050905001915050604051602081830303815290604052805190602001209050919050565b60006060826001600160a01b031663daae3c7e62000c666040518060400160405280600e81526020016d617373657473526567697374727960901b81525062000ba9565b6040518263ffffffff1660e01b815260040162000c849190620011d7565b60206040518083038186803b15801562000c9d57600080fd5b505afa15801562000cb2573d6000803e3d6000fd5b505050506040513d601f19601f8201168201806040525081019062000cd8919062000e83565b6001600160a01b031663bb9453a5856040518263ffffffff1660e01b815260040162000d059190620010f2565b60006040518083038186803b15801562000d1e57600080fd5b505afa15801562000d33573d6000803e3d6000fd5b505050506040513d6000823e601f3d908101601f1916820160405262000d5d919081019062001005565b505051151595945050505050565b600062000d7a83833062000d81565b9392505050565b604080516001600160f81b031960208083019190915260609390931b6bffffffffffffffffffffffff191660218201526035810194909452605580850193909352805180850390930183526075909301909252805191012090565b6133d9806200148383390190565b600082601f83011262000dfb578081fd5b815167ffffffffffffffff8082111562000e1157fe5b604051601f8301601f19168101602001828111828210171562000e3057fe5b60405282815284830160200186101562000e48578384fd5b62000e5b83602083016020880162001427565b95945050505050565b60006020828403121562000e76578081fd5b813562000d7a816200145a565b60006020828403121562000e95578081fd5b815162000d7a816200145a565b6000806040838503121562000eb5578081fd5b825162000ec2816200145a565b602084015190925062000ed5816200145a565b809150509250929050565b600080600080600080600060e0888a03121562000efb578283fd5b873562000f08816200145a565b9650602088013562000f1a816200145a565b9550604088013562000f2c816200145a565b9450606088013562000f3e816200145a565b93506080880135925060a0880135915060c088013562000f5e8162001473565b8091505092959891949750929550565b60008060008060008060c0878903121562000f87578182fd5b863562000f94816200145a565b9550602087013562000fa6816200145a565b9450604087013562000fb8816200145a565b9350606087013592506080870135915060a087013562000fd88162001473565b809150509295509295509295565b60006020828403121562000ff8578081fd5b815162000d7a8162001473565b600080600080608085870312156200101b578384fd5b845167ffffffffffffffff8082111562001033578586fd5b620010418883890162000dea565b9550602087015191508082111562001057578485fd5b50620010668782880162000dea565b935050604085015160ff811681146200107d578283fd5b6060959095015193969295505050565b6000602082840312156200109f578081fd5b5035919050565b600060208284031215620010b8578081fd5b5051919050565b60008351620010d381846020880162001427565b835190830190620010e981836020880162001427565b01949350505050565b6001600160a01b0391909116815260200190565b6001600160a01b0392831681529116602082015260400190565b6001600160a01b03988916815296881660208801529490961660408601526060850192909252608084015260a083015260c082019290925290151560e08201526101000190565b6001600160a01b03978816815295871660208701529386166040860152919094166060840152608083019390935260a082019290925290151560c082015260e00190565b6001600160a01b039390931683526020830191909152604082015260600190565b901515815260200190565b90815260200190565b6020808252602e908201527f4f7074696f6e73466163746f72793a20417373657420646f6573206e6f74206560408201526d7869737420696e206f7261636c6560901b606082015260800190565b6020808252601e908201527f756e6465726c79696e67206e6f7420696e207468652072656769737472790000604082015260600190565b60208082526037908201527f4f7074696f6e73466163746f72793a204f7261636c6520646f65736e2774207360408201527f7570706f72742074686520676976656e206f7074696f6e000000000000000000606082015260800190565b6020808252601690820152751bdc1d1a5bdb88185b1c9958591e4818dc99585d195960521b604082015260600190565b60208082526030908201527f4f7074696f6e73466163746f72793a20676976656e206578706972792074696d60408201526f19481a5cc81a5b881d1a19481c185cdd60821b606082015260800190565b6020808252601190820152700737472696b652063616e2774206265203607c1b604082015260600190565b6020808252603a908201527f4f7074696f6e73466163746f72793a204f7261636c65206973206e6f7420726560408201527f676973746572656420696e204f7261636c655265676973747279000000000000606082015260800190565b6020808252603a908201527f4f7074696f6e73466163746f72793a204f7261636c65206973206e6f7420616360408201527f7469766520696e20746865204f7261636c655265676973747279000000000000606082015260800190565b60005b83811015620014445781810151838201526020016200142a565b8381111562001454576000848401525b50505050565b6001600160a01b03811681146200147057600080fd5b50565b80151581146200147057600080fdfe6101406040527f6e71edae12b1b97f4d1f60370fef10105fa2faae0126114a169c64845d6126c9610120523480156200003757600080fd5b50604051620033d9380380620033d98339810160408190526200005a9162000f7a565b6200006a878787868686620001b5565b6040805180820190915260018152603160f81b60208201528190620000948a8a8a898989620001b5565b620000a48b8b8b8a8a8a6200028b565b8151620000b990600390602085019062000e19565b508051620000cf90600490602084019062000e19565b50506005805460ff1916601217905550815160208084019190912082519183019190912060c082905260e08190527f8b73c3c69bb8fe3d512ecc4cf759cc79239f7b179b0ffacaa9a75d522b39400f6200012862000331565b60a0526200013881848462000335565b608052610100525050600780546001600160a01b03199081166001600160a01b039c8d16179091556008805482169a8c169a909a17909955505060098054881696891696909617909555600a80549096169390961692909217909355600b9290925550600c55600d805460ff19169115159190911790556200131e565b60606000620001c5888862000399565b90506000620001d5898862000399565b90506000620001e487620004e8565b905060008060006200020189620005f360201b62000c531760201c565b919450925090506000620002158962000614565b91506000905062000226846200069b565b915088905087620002378562000a4a565b836200024e8962000ab260201b62000c721760201c565b8a876040516020016200026897969594939291906200112d565b604051602081830303815290604052985050505050505050509695505050505050565b606060006200029b888862000399565b90506000620002ab898862000399565b90506000620002ba87620004e8565b90506000806000620002d789620005f360201b62000c531760201c565b919450925090506000620002eb8962000614565b5090506000620002fb846200069b565b50905087876200030b8562000a4a565b83620003178962000a4a565b8a8760405160200162000268979695949392919062001210565b4690565b60008383836200034462000331565b3060405160200180868152602001858152602001848152602001838152602001826001600160a01b03168152602001955050505050506040516020818303038152906040528051906020012090509392505050565b6060826001600160a01b031663daae3c7e620003e66040518060400160405280600e81526020016d617373657473526567697374727960901b81525062000b9560201b62000d4d1760201c565b6040518263ffffffff1660e01b8152600401620004049190620012e2565b60206040518083038186803b1580156200041d57600080fd5b505afa15801562000432573d6000803e3d6000fd5b505050506040513d601f19601f8201168201806040525081019062000458919062000f56565b6001600160a01b031663bb9453a5836040518263ffffffff1660e01b8152600401620004859190620012ce565b60006040518083038186803b1580156200049e57600080fd5b505afa158015620004b3573d6000803e3d6000fd5b505050506040513d6000823e601f3d908101601f19168201604052620004dd919081019062001003565b509095945050505050565b6060600062000509620f42408462000c0e60201b62000dc41790919060201c565b905060006200052a620f42408562000c7760201b62000e2b1790919060201c565b90506000620005448262000ab260201b62000c721760201c565b90508262000557579250620005ee915050565b60005b62000575600a8562000c0e60201b62000dc41790919060201c565b6200058957600a840493506001016200055a565b80600603600a0a840193506000620005ac8562000ab260201b62000c721760201c565b9050620005c0816001600785900362000ce0565b90508281604051602001620005d7929190620010c2565b604051602081830303815290604052955050505050505b919050565b600080806200060762015180850462000d82565b9196909550909350915050565b606080826200065957604051806040016040528060018152602001600560fc1b81525060405180604001604052806003815260200162141d5d60ea1b81525062000691565b604051806040016040528060018152602001604360f81b8152506040518060400160405280600481526020016310d85b1b60e21b8152505b915091505b915091565b6060808260011415620006ee57604051806040016040528060038152602001622520a760e91b815250604051806040016040528060078152602001664a616e7561727960c81b8152509150915062000696565b82600214156200073f57604051806040016040528060038152602001622322a160e91b81525060405180604001604052806008815260200167466562727561727960c01b8152509150915062000696565b82600314156200078d576040518060400160405280600381526020016226a0a960e91b8152506040518060400160405280600581526020016409ac2e4c6d60db1b8152509150915062000696565b8260041415620007db576040518060400160405280600381526020016220a82960e91b81525060405180604001604052806005815260200164105c1c9a5b60da1b8152509150915062000696565b82600514156200082757604051806040016040528060038152602001624d415960e81b815250604051806040016040528060038152602001624d617960e81b8152509150915062000696565b8260061415620008745760405180604001604052806003815260200162252aa760e91b815250604051806040016040528060048152602001634a756e6560e01b8152509150915062000696565b8260071415620008c1576040518060400160405280600381526020016212955360ea1b815250604051806040016040528060048152602001634a756c7960e01b8152509150915062000696565b826008141562000910576040518060400160405280600381526020016241554760e81b81525060405180604001604052806006815260200165105d59dd5cdd60d21b8152509150915062000696565b826009141562000962576040518060400160405280600381526020016205345560ec1b8152506040518060400160405280600981526020016829b2b83a32b6b132b960b91b8152509150915062000696565b82600a1415620009b2576040518060400160405280600381526020016213d0d560ea1b8152506040518060400160405280600781526020016627b1ba37b132b960c91b8152509150915062000696565b82600b141562000a0357604051806040016040528060038152602001622727ab60e91b815250604051806040016040528060088152602001672737bb32b6b132b960c11b8152509150915062000696565b6040518060400160405280600381526020016244454360e81b815250604051806040016040528060088152602001672232b1b2b6b132b960c11b8152509150915062000696565b6060606382111562000a5d576064820691505b600062000a758362000ab260201b62000c721760201c565b9050600a83101562000aac578060405160200162000a94919062001102565b604051602081830303815290604052915050620005ee565b92915050565b60608162000ad957506040805180820190915260018152600360fc1b6020820152620005ee565b8160005b811562000af357600101600a8204915062000add565b6000816001600160401b038111801562000b0c57600080fd5b506040519080825280601f01601f19166020018201604052801562000b38576020820181803683370190505b50859350905060001982015b831562000b8c57600a840660300160f81b8282806001900393508151811062000b6957fe5b60200101906001600160f81b031916908160001a905350600a8404935062000b44565b50949350505050565b6000816040516020018082805190602001908083835b6020831062000bcc5780518252601f19909201916020918201910162000bab565b6001836020036101000a038019825116818451168082178552505050505050905001915050604051602081830303815290604052805190602001209050919050565b600080821162000c65576040805162461bcd60e51b815260206004820152601860248201527f536166654d6174683a206d6f64756c6f206279207a65726f0000000000000000604482015290519081900360640190fd5b81838162000c6f57fe5b069392505050565b600080821162000cce576040805162461bcd60e51b815260206004820152601a60248201527f536166654d6174683a206469766973696f6e206279207a65726f000000000000604482015290519081900360640190fd5b81838162000cd857fe5b049392505050565b606060008383036001600160401b038111801562000cfd57600080fd5b506040519080825280601f01601f19166020018201604052801562000d29576020820181803683370190505b50905060005b84840381101562000b8c5785856001018151811062000d4a57fe5b602001015160f81c60f81b82828151811062000d6257fe5b60200101906001600160f81b031916908160001a90535060010162000d2f565b60008080836226496581018262023ab1600483020590506004600362023ab18302010590910390600062164b09610fa0600185010205905060046105b58202058303601f019250600061098f846050028162000dda57fe5b0590506000605061098f83020585039050600b820560301994909401606402929092018301996002600c90940290910392909201975095509350505050565b828054600181600116156101000203166002900490600052602060002090601f01602090048101928262000e51576000855562000e9c565b82601f1062000e6c57805160ff191683800117855562000e9c565b8280016001018555821562000e9c579182015b8281111562000e9c57825182559160200191906001019062000e7f565b5062000eaa92915062000eae565b5090565b5b8082111562000eaa576000815560010162000eaf565b80516001600160a01b0381168114620005ee57600080fd5b600082601f83011262000eee578081fd5b81516001600160401b038082111562000f0357fe5b604051601f8301601f19168101602001828111828210171562000f2257fe5b60405282815284830160200186101562000f3a578384fd5b62000f4d836020830160208801620012eb565b95945050505050565b60006020828403121562000f68578081fd5b62000f738262000ec5565b9392505050565b600080600080600080600060e0888a03121562000f95578283fd5b62000fa08862000ec5565b965062000fb06020890162000ec5565b955062000fc06040890162000ec5565b945062000fd06060890162000ec5565b93506080880151925060a0880151915060c0880151801515811462000ff3578182fd5b8091505092959891949750929550565b6000806000806080858703121562001019578384fd5b84516001600160401b038082111562001030578586fd5b6200103e8883890162000edd565b9550602087015191508082111562001054578485fd5b50620010638782880162000edd565b935050604085015160ff811681146200107a578283fd5b6060959095015193969295505050565b600081516200109e818560208601620012eb565b9290920192915050565b600160fd1b815260010190565b602d60f81b815260010190565b60008351620010d6818460208801620012eb565b601760f91b9083019081528351620010f6816001840160208801620012eb565b01600101949350505050565b6000600360fc1b8252825162001120816001850160208701620012eb565b9190910160010192915050565b600064145550539560da1b8252600160fd1b80600584015289516200115a816006860160208e01620012eb565b8084019050602d60f81b8060068301528a516200117f816007850160208f01620012eb565b6007920191820192909252885191620011a0836008840160208d01620012eb565b828201925080600884015250508651620011c2816009840160208b01620012eb565b62001201620011fa620011ed620011f3620011ed620011e6600987890101620010b5565b8c6200108a565b620010a8565b896200108a565b866200108a565b9b9a5050505050505050505050565b600064145550539560da1b8252602d60f81b80600584015289516200123d816006860160208e01620012eb565b808401905081600682015289516200125d816007840160208e01620012eb565b0160078101919091528751906200127c826008830160208c01620012eb565b875191019062001294816008840160208b01620012eb565b8651910190620012ac816008840160208a01620012eb565b62001201620011fa620012c8620011f3600886860101620010b5565b620010b5565b6001600160a01b0391909116815260200190565b90815260200190565b60005b8381101562001308578181015183820152602001620012ee565b8381111562001318576000848401525b50505050565b60805160a05160c05160e05161010051610120516120716200136860003980610ae05250806114ce5250806115105250806114ef5250806114755250806114a552506120716000f3fe608060405234801561001057600080fd5b50600436106101735760003560e01c80637158da7c116100de5780639dc29fac11610097578063c52987cf11610071578063c52987cf146102dc578063d17b74ca146102e4578063d505accf146102f9578063dd62ed3e1461030c57610173565b80639dc29fac146102a3578063a457c2d7146102b6578063a9059cbb146102c957610173565b80637158da7c146102685780637dc0d1d0146102705780637ecebe001461027857806393f7f14d1461028b57806395d89b411461029357806399bc0aea1461029b57610173565b8063313ce56711610130578063313ce567146102085780633644e5151461021d578063395093511461022557806340c10f19146102385780636d6364781461024d57806370a082311461025557610173565b806306781f941461017857806306fdde0314610196578063095ea7b3146101ab57806317d69bc8146101cb57806318160ddd146101e057806323b872dd146101f5575b600080fd5b61018061031f565b60405161018d9190611e3c565b60405180910390f35b61019e610336565b60405161018d9190611cf1565b6101be6101b9366004611c17565b6103cc565b60405161018d9190611cb2565b6101d36103e9565b60405161018d9190611c7a565b6101e86103f8565b60405161018d9190611cbd565b6101be610203366004611b62565b6103fe565b610210610485565b60405161018d9190611e8d565b6101e861048e565b6101be610233366004611c17565b610498565b61024b610246366004611c17565b6104e6565b005b6101be61064e565b6101e8610263366004611af2565b610657565b6101d3610676565b6101d3610685565b6101e8610286366004611af2565b610694565b6101d36106bb565b61019e6106ca565b6101e861072b565b61024b6102b1366004611c17565b610731565b6101be6102c4366004611c17565b610884565b6101be6102d7366004611c17565b6108ec565b6101e8610900565b6102ec610906565b60405161018d9190611cdd565b61024b610307366004611ba2565b610a71565b6101e861031a366004611b2a565b610c28565b610327611abd565b61033030610e92565b90505b90565b60038054604080516020601f60026000196101006001881615020190951694909404938401819004810282018101909252828152606093909290918301828280156103c25780601f10610397576101008083540402835291602001916103c2565b820191906000526020600020905b8154815290600101906020018083116103a557829003601f168201915b5050505050905090565b60006103e06103d961118f565b8484611193565b50600192915050565b6009546001600160a01b031681565b60025490565b600061040b84848461127f565b61047b8461041761118f565b61047685604051806060016040528060288152602001611f85602891396001600160a01b038a1660009081526001602052604081209061045561118f565b6001600160a01b0316815260208101919091526040016000205491906113da565b611193565b5060019392505050565b60055460ff1690565b6000610330611471565b60006103e06104a561118f565b8461047685600160006104b661118f565b6001600160a01b03908116825260208083019390935260409182016000908120918c16815292529020549061153b565b600754604051638e2d170360e01b81526001600160a01b03909116906391d14854908290638e2d17039061051c90600401611d93565b60206040518083038186803b15801561053457600080fd5b505afa158015610548573d6000803e3d6000fd5b505050506040513d601f19601f8201168201806040525081019061056c9190611c62565b336040518363ffffffff1660e01b815260040161058a929190611cc6565b60206040518083038186803b1580156105a257600080fd5b505afa1580156105b6573d6000803e3d6000fd5b505050506040513d601f19601f820116820180604052508101906105da9190611c42565b6105ff5760405162461bcd60e51b81526004016105f690611dc0565b60405180910390fd5b610609828261159c565b816001600160a01b03167fe04447078b292231e48ca16e5e26424e8ac8118664fd09b594e94c56d92783d9826040516106429190611cbd565b60405180910390a25050565b600d5460ff1681565b6001600160a01b0381166000908152602081905260409020545b919050565b6008546001600160a01b031681565b600a546001600160a01b031681565b6001600160a01b03811660009081526006602052604081206106b59061168c565b92915050565b6007546001600160a01b031681565b60048054604080516020601f60026000196101006001881615020190951694909404938401819004810282018101909252828152606093909290918301828280156103c25780601f10610397576101008083540402835291602001916103c2565b600c5481565b600754604051638e2d170360e01b81526001600160a01b03909116906391d14854908290638e2d17039061076790600401611e0f565b60206040518083038186803b15801561077f57600080fd5b505afa158015610793573d6000803e3d6000fd5b505050506040513d601f19601f820116820180604052508101906107b79190611c62565b336040518363ffffffff1660e01b81526004016107d5929190611cc6565b60206040518083038186803b1580156107ed57600080fd5b505afa158015610801573d6000803e3d6000fd5b505050506040513d601f19601f820116820180604052508101906108259190611c42565b6108415760405162461bcd60e51b81526004016105f690611d44565b61084b8282611690565b816001600160a01b03167fa6230a5fb61be4933f215d879a20dabe38532ae0359d853d7fbea40cc068a22f826040516106429190611cbd565b60006103e061089161118f565b846104768560405180606001604052806025815260200161201760259139600160006108bb61118f565b6001600160a01b03908116825260208083019390935260409182016000908120918d168152925290205491906113da565b60006103e06108f961118f565b848461127f565b600b5481565b6000600c54421115610a695760075460408051808201909152600d81526c7072696365526567697374727960981b60208201526000916001600160a01b03169063daae3c7e9061095590610d4d565b6040518263ffffffff1660e01b81526004016109719190611cbd565b60206040518083038186803b15801561098957600080fd5b505afa15801561099d573d6000803e3d6000fd5b505050506040513d601f19601f820116820180604052508101906109c19190611b0e565b600a54600854600c5460405163b250326960e01b81529394506001600160a01b038086169463b250326994610a00949083169392169190600401611c8e565b60206040518083038186803b158015610a1857600080fd5b505afa158015610a2c573d6000803e3d6000fd5b505050506040513d601f19601f82011682018060405250810190610a509190611c42565b15610a5f576002915050610333565b6001915050610333565b506000610333565b83421115610ac6576040805162461bcd60e51b815260206004820152601d60248201527f45524332305065726d69743a206578706972656420646561646c696e65000000604482015290519081900360640190fd5b6001600160a01b03871660009081526006602052604081207f000000000000000000000000000000000000000000000000000000000000000090899089908990610b0f9061168c565b8960405160200180878152602001866001600160a01b03168152602001856001600160a01b0316815260200184815260200183815260200182815260200196505050505050506040516020818303038152906040528051906020012090506000610b788261178c565b90506000610b88828787876117d8565b9050896001600160a01b0316816001600160a01b031614610bf0576040805162461bcd60e51b815260206004820152601e60248201527f45524332305065726d69743a20696e76616c6964207369676e61747572650000604482015290519081900360640190fd5b6001600160a01b038a166000908152600660205260409020610c1190611956565b610c1c8a8a8a611193565b50505050505050505050565b6001600160a01b03918216600090815260016020908152604080832093909416825291909152205490565b60008080610c6562015180850461195f565b9196909550909350915050565b606081610c9757506040805180820190915260018152600360fc1b6020820152610671565b8160005b8115610caf57600101600a82049150610c9b565b60008167ffffffffffffffff81118015610cc857600080fd5b506040519080825280601f01601f191660200182016040528015610cf3576020820181803683370190505b50859350905060001982015b8315610d4457600a840660300160f81b82828060019003935081518110610d2257fe5b60200101906001600160f81b031916908160001a905350600a84049350610cff565b50949350505050565b6000816040516020018082805190602001908083835b60208310610d825780518252601f199092019160209182019101610d63565b6001836020036101000a038019825116818451168082178552505050505050905001915050604051602081830303815290604052805190602001209050919050565b6000808211610e1a576040805162461bcd60e51b815260206004820152601860248201527f536166654d6174683a206d6f64756c6f206279207a65726f0000000000000000604482015290519081900360640190fd5b818381610e2357fe5b069392505050565b6000808211610e81576040805162461bcd60e51b815260206004820152601a60248201527f536166654d6174683a206469766973696f6e206279207a65726f000000000000604482015290519081900360640190fd5b818381610e8a57fe5b049392505050565b610e9a611abd565b60008290506040518060c00160405280826001600160a01b0316637158da7c6040518163ffffffff1660e01b815260040160206040518083038186803b158015610ee357600080fd5b505afa158015610ef7573d6000803e3d6000fd5b505050506040513d601f19601f82011682018060405250810190610f1b9190611b0e565b6001600160a01b03168152602001826001600160a01b03166317d69bc86040518163ffffffff1660e01b815260040160206040518083038186803b158015610f6257600080fd5b505afa158015610f76573d6000803e3d6000fd5b505050506040513d601f19601f82011682018060405250810190610f9a9190611b0e565b6001600160a01b03168152602001826001600160a01b0316637dc0d1d06040518163ffffffff1660e01b815260040160206040518083038186803b158015610fe157600080fd5b505afa158015610ff5573d6000803e3d6000fd5b505050506040513d601f19601f820116820180604052508101906110199190611b0e565b6001600160a01b03168152602001826001600160a01b031663c52987cf6040518163ffffffff1660e01b815260040160206040518083038186803b15801561106057600080fd5b505afa158015611074573d6000803e3d6000fd5b505050506040513d601f19601f820116820180604052508101906110989190611c62565b8152602001826001600160a01b03166399bc0aea6040518163ffffffff1660e01b815260040160206040518083038186803b1580156110d657600080fd5b505afa1580156110ea573d6000803e3d6000fd5b505050506040513d601f19601f8201168201806040525081019061110e9190611c62565b8152602001826001600160a01b0316636d6364786040518163ffffffff1660e01b815260040160206040518083038186803b15801561114c57600080fd5b505afa158015611160573d6000803e3d6000fd5b505050506040513d601f19601f820116820180604052508101906111849190611c42565b151590529392505050565b3390565b6001600160a01b0383166111d85760405162461bcd60e51b8152600401808060200182810382526024815260200180611ff36024913960400191505060405180910390fd5b6001600160a01b03821661121d5760405162461bcd60e51b8152600401808060200182810382526022815260200180611ef96022913960400191505060405180910390fd5b6001600160a01b03808416600081815260016020908152604080832094871680845294825291829020859055815185815291517f8c5be1e5ebec7d5bd14f71427d1e84f3dd0314c0f7b2291e5b200ac8c7c3b9259281900390910190a3505050565b6001600160a01b0383166112c45760405162461bcd60e51b8152600401808060200182810382526025815260200180611fce6025913960400191505060405180910390fd5b6001600160a01b0382166113095760405162461bcd60e51b8152600401808060200182810382526023815260200180611eb46023913960400191505060405180910390fd5b6113148383836119f5565b61135181604051806060016040528060268152602001611f1b602691396001600160a01b03861660009081526020819052604090205491906113da565b6001600160a01b038085166000908152602081905260408082209390935590841681522054611380908261153b565b6001600160a01b038084166000818152602081815260409182902094909455805185815290519193928716927fddf252ad1be2c89b69c2b068fc378daa952ba7f163c4a11628f55a4df523b3ef92918290030190a3505050565b600081848411156114695760405162461bcd60e51b81526004018080602001828103825283818151815260200191508051906020019080838360005b8381101561142e578181015183820152602001611416565b50505050905090810190601f16801561145b5780820380516001836020036101000a031916815260200191505b509250505060405180910390fd5b505050900390565b60007f000000000000000000000000000000000000000000000000000000000000000061149c6119fa565b14156114c957507f0000000000000000000000000000000000000000000000000000000000000000610333565b6115347f00000000000000000000000000000000000000000000000000000000000000007f00000000000000000000000000000000000000000000000000000000000000007f00000000000000000000000000000000000000000000000000000000000000006119fe565b9050610333565b600082820183811015611595576040805162461bcd60e51b815260206004820152601b60248201527f536166654d6174683a206164646974696f6e206f766572666c6f770000000000604482015290519081900360640190fd5b9392505050565b6001600160a01b0382166115f7576040805162461bcd60e51b815260206004820152601f60248201527f45524332303a206d696e7420746f20746865207a65726f206164647265737300604482015290519081900360640190fd5b611603600083836119f5565b600254611610908261153b565b6002556001600160a01b038216600090815260208190526040902054611636908261153b565b6001600160a01b0383166000818152602081815260408083209490945583518581529351929391927fddf252ad1be2c89b69c2b068fc378daa952ba7f163c4a11628f55a4df523b3ef9281900390910190a35050565b5490565b6001600160a01b0382166116d55760405162461bcd60e51b8152600401808060200182810382526021815260200180611fad6021913960400191505060405180910390fd5b6116e1826000836119f5565b61171e81604051806060016040528060228152602001611ed7602291396001600160a01b03851660009081526020819052604090205491906113da565b6001600160a01b0383166000908152602081905260409020556002546117449082611a60565b6002556040805182815290516000916001600160a01b038516917fddf252ad1be2c89b69c2b068fc378daa952ba7f163c4a11628f55a4df523b3ef9181900360200190a35050565b6000611796611471565b82604051602001808061190160f01b81525060020183815260200182815260200192505050604051602081830303815290604052805190602001209050919050565b60007f7fffffffffffffffffffffffffffffff5d576e7357a4501ddfe92f46681b20a08211156118395760405162461bcd60e51b8152600401808060200182810382526022815260200180611f416022913960400191505060405180910390fd5b8360ff16601b148061184e57508360ff16601c145b6118895760405162461bcd60e51b8152600401808060200182810382526022815260200180611f636022913960400191505060405180910390fd5b600060018686868660405160008152602001604052604051808581526020018460ff1681526020018381526020018281526020019450505050506020604051602081039080840390855afa1580156118e5573d6000803e3d6000fd5b5050604051601f1901519150506001600160a01b03811661194d576040805162461bcd60e51b815260206004820152601860248201527f45434453413a20696e76616c6964207369676e61747572650000000000000000604482015290519081900360640190fd5b95945050505050565b80546001019055565b60008080836226496581018262023ab1600483020590506004600362023ab18302010590910390600062164b09610fa0600185010205905060046105b58202058303601f019250600061098f84605002816119b657fe5b0590506000605061098f83020585039050600b820560301994909401606402929092018301996002600c90940290910392909201975095509350505050565b505050565b4690565b6000838383611a0b6119fa565b3060405160200180868152602001858152602001848152602001838152602001826001600160a01b03168152602001955050505050506040516020818303038152906040528051906020012090509392505050565b600082821115611ab7576040805162461bcd60e51b815260206004820152601e60248201527f536166654d6174683a207375627472616374696f6e206f766572666c6f770000604482015290519081900360640190fd5b50900390565b6040805160c081018252600080825260208201819052918101829052606081018290526080810182905260a081019190915290565b600060208284031215611b03578081fd5b813561159581611e9b565b600060208284031215611b1f578081fd5b815161159581611e9b565b60008060408385031215611b3c578081fd5b8235611b4781611e9b565b91506020830135611b5781611e9b565b809150509250929050565b600080600060608486031215611b76578081fd5b8335611b8181611e9b565b92506020840135611b9181611e9b565b929592945050506040919091013590565b600080600080600080600060e0888a031215611bbc578283fd5b8735611bc781611e9b565b96506020880135611bd781611e9b565b95506040880135945060608801359350608088013560ff81168114611bfa578384fd5b9699959850939692959460a0840135945060c09093013592915050565b60008060408385031215611c29578182fd5b8235611c3481611e9b565b946020939093013593505050565b600060208284031215611c53578081fd5b81518015158114611595578182fd5b600060208284031215611c73578081fd5b5051919050565b6001600160a01b0391909116815260200190565b6001600160a01b039384168152919092166020820152604081019190915260600190565b901515815260200190565b90815260200190565b9182526001600160a01b0316602082015260400190565b6020810160038310611ceb57fe5b91905290565b6000602080835283518082850152825b81811015611d1d57858101830151858201604001528201611d01565b81811115611d2e5783604083870101525b50601f01601f1916929092016040019392505050565b6020808252602f908201527f51546f6b656e3a204f6e6c7920616e206f7074696f6e73206275726e6572206360408201526e616e206275726e2051546f6b656e7360881b606082015260800190565b6020808252601390820152724f5054494f4e535f4d494e5445525f524f4c4560681b604082015260600190565b6020808252602f908201527f51546f6b656e3a204f6e6c7920616e206f7074696f6e73206d696e746572206360408201526e616e206d696e742051546f6b656e7360881b606082015260800190565b6020808252601390820152724f5054494f4e535f4255524e45525f524f4c4560681b604082015260600190565b81516001600160a01b03908116825260208084015182169083015260408084015190911690820152606080830151908201526080808301519082015260a09182015115159181019190915260c00190565b60ff91909116815260200190565b6001600160a01b0381168114611eb057600080fd5b5056fe45524332303a207472616e7366657220746f20746865207a65726f206164647265737345524332303a206275726e20616d6f756e7420657863656564732062616c616e636545524332303a20617070726f766520746f20746865207a65726f206164647265737345524332303a207472616e7366657220616d6f756e7420657863656564732062616c616e636545434453413a20696e76616c6964207369676e6174757265202773272076616c756545434453413a20696e76616c6964207369676e6174757265202776272076616c756545524332303a207472616e7366657220616d6f756e74206578636565647320616c6c6f77616e636545524332303a206275726e2066726f6d20746865207a65726f206164647265737345524332303a207472616e736665722066726f6d20746865207a65726f206164647265737345524332303a20617070726f76652066726f6d20746865207a65726f206164647265737345524332303a2064656372656173656420616c6c6f77616e63652062656c6f77207a65726fa2646970667358221220f5a9e3db1c462ff0d126d62aa8e686e57d6796ccb7d35b0960afea814e298dc364736f6c63430007060033a264697066735822122043c551bafb0f0d5eaf2ee6f3d11c3d4ad1e6fd51262e33aeb8fda820d94e8d4d64736f6c63430007060033",
  "sourcePath": "/Users/andrekorol/src/optionseskimo/quant-protocol/contracts/options/OptionsFactory.sol",
  "compiler": {
    "name": "solc",
    "version": "0.7.6+commit.7338295f"
  },
  "functionHashes": {
    "collateralToken()": "b2016bd4",
    "createOption(address,address,address,uint256,uint256,bool)": "14881935",
    "getCollateralToken(address,address,address,address,uint256,uint256,bool)": "2c37e4ca",
    "getOptionsLength()": "5eb57b48",
    "getQToken(address,address,address,uint256,uint256,bool)": "ab0a7bc6",
    "getTargetCollateralTokenId(address,address,address,address,uint256,uint256,bool)": "16a5de45",
    "getTargetQTokenAddress(address,address,address,uint256,uint256,bool)": "effa949b",
    "isQToken(address)": "0c74804e",
    "qTokenAddressToCollateralTokenId(address)": "380533c2",
    "qTokens(uint256)": "232cbb25",
    "quantConfig()": "93f7f14d"
  },
  "gasEstimates": {
    "creation": {
      "codeDepositCost": "3715400",
      "executionCost": "infinite",
      "totalCost": "infinite"
    },
    "external": {
      "collateralToken()": "1158",
      "createOption(address,address,address,uint256,uint256,bool)": "infinite",
      "getCollateralToken(address,address,address,address,uint256,uint256,bool)": "infinite",
      "getOptionsLength()": "1050",
      "getQToken(address,address,address,uint256,uint256,bool)": "infinite",
      "getTargetCollateralTokenId(address,address,address,address,uint256,uint256,bool)": "infinite",
      "getTargetQTokenAddress(address,address,address,uint256,uint256,bool)": "infinite",
      "isQToken(address)": "1277",
      "qTokenAddressToCollateralTokenId(address)": "1246",
      "qTokens(uint256)": "2105",
      "quantConfig()": "1114"
    }
  }
}